:020000040800F2
:1000000000040020C1010008A1770008A1770008C2
:1000100061280008A1770008A1770008A1770008EF
:10002000A1770008A1770008A1770008819C00084B
:10003000A1770008A1770008A177000881110108C5
:10004000A1770008B1D5000841D7000891D7000872
:10005000A1770008A1770008F1D2000841D3000879
:1000600091D30008E1D3000831D4000881C400080E
:10007000D1C4000821C5000871C50008C1C5000829
:1000800011C6000861C6000891CE0008E1D700083B
:1000900051D8000801D90008B1D9000881D400085E
:1000A000A1770008A1770008E10A0108A1770008FC
:1000B000010C0108910C0108210D010801ED000857
:1000C00041EE0008A1770008A1770008A177000899
:1000D000A1770008A1770008A17700084112010864
:1000E00011D5000801D6000851D60008410B0108BF
:1000F000A1770008A1770008A1770008B1C6000821
:10010000A177000881DC0008B10D0108A177000883
:10011000A1770008A1770008810A0108A1770008EB
:1001200001C7000851C70008A1C70008F1C70008AF
:1001300041C80008A1770008A1D60008A1770008EF
:10014000A1770008A1770008A177000841F900080D
:1001500091C80008E1C8000831C90008A17700086B
:10016000A1770008A1770008A1770008A17700080F
:10017000F1D60008A1770008F1140008A177000863
:10018000A1770008A1770008A1770008A1770008EF
:10019000A1770008A1770008A1770008A1770008DF
:1001A000A1770008A1770008A1770008A1770008CF
:1001B000A1770008A1770008A1770008A1770008BF
:1001C00072B62E4880F3098840F20000CCF200009D
:1001D0004EF63471CEF20001086040F20000C0F229
:1001E000F0004EF68851CEF2000108604FF000009A
:1001F000E1EE100A4EF63C71CEF2000108600620D6
:1002000080F31488BFF36F8F11F08AF94FF05530E7
:100210001B491C4A91423CBF41F8040BFAE71A49BA
:10022000164A91423CBF41F8040BFAE71749184AB5
:10023000184B9A423EBF51F8040B42F8040BF8E702
:1002400000201549154A91423CBF41F8040BFAE7DA
:1002500007F08EFA124C134DAC4203DA54F8041B2B
:100260008847F9E701F004F80F4C104DAC4203DA6F
:1002700054F8041B8847F9E707F08ABA0008002001
:100280000000002000040020000400209862010803
:1002900000080020E4140020E8140020587A002010
:1002A000C0010008C0010008C0010008C00100082A
:1002B0002DE9F04F2DED108AC1F80CD0D0F80CD0FC
:1002C000BDEC108ABDE8F08F07F0AAFB08F058FCDF
:1002D000002383F311882846A047002008F0D0F9B6
:1002E00008F036FC07F07CFB07F0CAFF07F098FB2C
:1002F00008F046FC00DFFEE7000000000000000000
:1003000081F0004102E000BF83F0004330B54FEAC6
:1003100041044FEA430594EA050F08BF90EA020F33
:100320001FBF54EA000C55EA020C7FEA645C7FEAC6
:10033000655C00F0E2804FEA5454D4EB5555B8BFE9
:100340006D420CDD2C4480EA020281EA030382EA5A
:10035000000083EA010180EA020281EA0303362DEC
:1003600088BF30BD11F0004F4FEA01314FF4801CBF
:100370004CEA113102D0404261EB410113F0004FD1
:100380004FEA03334CEA133302D0524263EB430388
:1003900094EA050F00F0A780A4F10104D5F1200E26
:1003A0000DDB02FA0EFC22FA05F2801841F1000181
:1003B00003FA0EF2801843FA05F359410EE0A5F155
:1003C00020050EF1200E012A03FA0EFC28BF4CF086
:1003D000020C43FA05F3C01851EBE37101F000453C
:1003E00007D54FF0000EDCF1000C7EEB00006EEB49
:1003F0000101B1F5801F1BD3B1F5001F0CD34908D3
:100400005FEA30004FEA3C0C04F101044FEA445229
:1004100012F5800F80F09A80BCF1004F08BF5FEAB0
:10042000500C50F1000041EB045141EA050130BD90
:100430005FEA4C0C404141EB010111F4801FA4F133
:100440000104E9D191F0000F04BF01460020B1FA88
:1004500081F308BF2033A3F10B03B3F120020CDAC0
:100460000C3208DD02F1140CC2F10C0201FA0CF09E
:1004700021FA02F10CE002F11402D8BFC2F1200C03
:1004800001FA02F120FA0CFCDCBF41EA0C019040B9
:10049000E41AA2BF01EB0451294330BD6FEA040402
:1004A0001F3C1CDA0C340EDC04F11404C4F12002ED
:1004B00020FA04F001FA02F340EA030021FA04F3FF
:1004C00045EA030130BDC4F10C04C4F1200220FA56
:1004D00002F001FA04F340EA0300294630BD21FA94
:1004E00004F0294630BD94F0000F83F4801306BF5A
:1004F00081F480110134013D4EE77FEA645C18BF4E
:100500007FEA655C29D094EA050F08BF90EA020FE4
:1005100005D054EA000C04BF1946104630BD91EADC
:10052000030F1EBF0021002030BD5FEA545C05D1DF
:100530004000494128BF41F0004130BD14F580041E
:100540003CBF01F5801130BD01F0004545F0FE4192
:1005500041F470014FF0000030BD7FEA645C1ABFC7
:10056000194610467FEA655C1CBF0B46024650EAFE
:10057000013406BF52EA033591EA030F41F400212A
:1005800030BD00BF90F0000F04BF0021704730B5B0
:100590004FF4806404F132044FF000054FF0000185
:1005A00050E700BF90F0000F04BF0021704730B546
:1005B0004FF4806404F1320410F0004548BF40421B
:1005C0004FF000013EE700BF42004FEAE2014FEA70
:1005D00031014FEA02701FBF12F07F4393F07F4F4B
:1005E00081F06051704732F07F4208BF704793F04E
:1005F0007F4F04BF41F40021704730B54FF4607461
:1006000001F0004521F000411CE700BF50EA010263
:1006100008BF704730B54FF000050AE050EA01020C
:1006200008BF704730B511F0004502D5404261EB7C
:1006300041014FF4806404F132045FEA915C3FF4BD
:10064000D8AE4FF003025FEADC0C18BF03325FEA5A
:10065000DC0C18BF033202EBDC02C2F1200300FA0B
:1006600003FC20FA02F001FA03FE40EA0E0021FA30
:1006700002F11444BDE600BF0000000000000000CD
:1006800070B54FF0FF0C4CF4E06C1CEA11541DBF28
:100690001CEA135594EA0C0F95EA0C0F00F0DEF8F3
:1006A0002C4481EA030621EA4C5123EA4C5350EAD8
:1006B000013518BF52EA033541F4801143F4801329
:1006C00038D0A0FB02CE4FF00005E1FB02E506F0BA
:1006D0000042E0FB03E54FF00006E1FB03569CF00F
:1006E000000F18BF4EF0010EA4F1FF04B6F5007F15
:1006F00064F5407404D25FEA4E0E6D4146EB060687
:1007000042EAC62141EA55514FEAC52040EA5E500F
:100710004FEACE2EB4F1FD0C88BFBCF5E06F1ED8B9
:10072000BEF1004F08BF5FEA500E50F1000041EBF0
:10073000045170BD06F0004646EA010140EA02009D
:1007400081EA0301B4EB5C04C2BFD4EB0C0541EABF
:10075000045170BD41F480114FF0000E013C00F3D4
:10076000AB8014F1360FDEBF002001F0004170BDF8
:10077000C4F10004203C35DA0C341BDC04F1140411
:10078000C4F1200500FA05F320FA04F001FA05F29D
:1007900040EA020001F0004221F0004110EBD3706A
:1007A00021FA04F642EB06015EEA430E08BF20EA96
:1007B000D37070BDC4F10C04C4F1200500FA04F339
:1007C00020FA05F001FA04F240EA020001F00041CB
:1007D00010EBD37041F100015EEA430E08BF20EA3E
:1007E000D37070BDC4F1200500FA05F24EEA020E86
:1007F00020FA04F301FA05F243EA020321FA04F0B5
:1008000001F0004121FA04F220EA020000EBD3706B
:100810005EEA430E08BF20EAD37070BD94F0000F6B
:100820000FD101F00046400041EB010111F4801F9F
:1008300008BF013CF7D041EA060195F0000F18BF50
:10084000704703F00046520043EB030313F4801F8C
:1008500008BF013DF7D043EA0603704794EA0C0F46
:100860000CEA135518BF95EA0C0F0CD050EA41065C
:1008700018BF52EA4306D1D181EA030101F00041D9
:100880004FF0000070BD50EA410606BF1046194601
:1008900052EA430619D094EA0C0F02D150EA01360D
:1008A00013D195EA0C0F05D152EA03361CBF10464E
:1008B00019460AD181EA030101F0004141F0FE41ED
:1008C00041F470014FF0000070BD41F0FE4141F471
:1008D000780170BD70B54FF0FF0C4CF4E06C1CEA71
:1008E00011541DBF1CEA135594EA0C0F95EA0C0F26
:1008F00000F0A7F8A4EB050481EA030E52EA0335E1
:100900004FEA013100F088804FEA03334FF0805501
:1009100045EA131343EA12634FEA022245EA11152E
:1009200045EA10654FEA00260EF000419D4208BFDF
:10093000964244F1FD0404F5407402D25B084FEA8C
:100940003202B61A65EB03055B084FEA32024FF438
:1009500080104FF4002CB6EB020E75EB030E22BF95
:10096000B61A754640EA0C005B084FEA3202B6EB55
:10097000020E75EB030E22BFB61A754640EA5C0004
:100980005B084FEA3202B6EB020E75EB030E22BF94
:10099000B61A754640EA9C005B084FEA3202B6EB95
:1009A000020E75EB030E22BFB61A754640EADC0054
:1009B00055EA060E18D04FEA051545EA16754FEAB6
:1009C00006164FEAC30343EA52734FEAC2025FEAD4
:1009D0001C1CC0D111F4801F0BD141EA00014FF063
:1009E00000004FF0004CB6E711F4801F04BF014334
:1009F0000020B4F1FD0C88BFBCF5E06F3FF6AFAE50
:100A0000B5EB030C04BFB6EB020C5FEA500C50F1DF
:100A1000000041EB045170BD0EF0004E4EEA113162
:100A200014EB5C04C2BFD4EB0C0541EA045170BD69
:100A300041F480114FF0000E013C90E645EA060EAD
:100A40008DE60CEA135594EA0C0F08BF95EA0C0FDB
:100A50003FF43BAF94EA0C0F0AD150EA01347FF423
:100A600034AF95EA0C0F7FF425AF104619462CE7FA
:100A700095EA0C0F06D152EA03353FF4FDAE10465D
:100A8000194622E750EA410618BF52EA43067FF4AE
:100A9000C5AE50EA41047FF40DAF52EA43057FF43E
:100AA000EBAE12E7000000000000000000000000B4
:100AB0004FEA410212F5001215D211D56FF4787386
:100AC000B3EB625212D94FEAC12343F0004343EA29
:100AD000505311F0004F23FA02F018BF4042704704
:100AE0004FF00000704750EA013005D111F000408E
:100AF00008BF6FF0004070474FF00000704700BF24
:100B000053B94AB9002908BF00281CBF4FF0FF3174
:100B10004FF0FF3000F074B9ADF1080C6DE904CE70
:100B200000F006F8DDF804E0DDE9022304B07047C8
:100B30002DE9F047089E04468846002B4BD18A4297
:100B4000154667D9B2FA82F24AB1C2F1200701FA1A
:100B500002F320FA07F7954047EA030894404FEA6A
:100B6000154E230CB8FBFEF71FFA85FC0EFB178809
:100B700043EA084307FB0CF1994209D9EB1807F146
:100B8000FF3080F01B81994240F21881023F2B44D4
:100B90005B1AA4B2B3FBFEF00EFB103344EA03442D
:100BA00000FB0CFCA44509D92C1900F1FF3380F09F
:100BB0000781A44540F2048102382C4440EA0740F2
:100BC000A4EB0C0400271EB1D4400023C6E9004367
:100BD0003946BDE8F0878B4209D9002E00F0EB8042
:100BE0000027C6E9000138463946BDE8F087B3FA68
:100BF00083F7002F47D18B4202D3824200F2FA8062
:100C0000841A61EB030301209846002EE0D0C6E968
:100C10000048DDE702B9FFDEB2FA82F2002A40F0B6
:100C20008F80491B4FEA154E1FFA85F80127B1FB4B
:100C3000FEFC230C0EFB1C1143EA014308FB0CF1E4
:100C4000994207D9EB180CF1FF3002D2994200F219
:100C5000CD808446591AA3B2B1FBFEF00EFB1014EE
:100C600043EA044408FB00F8A04507D92C1900F119
:100C7000FF3302D2A04500F2B6801846A4EB080468
:100C800040EA0C409FE7C7F1200CBB4022FA0CFE63
:100C90004EEA030E01FA07F420FA0CF521FA0CF3E0
:100CA0004FEA1E482543B3FBF8F92C0C08FB193317
:100CB0001FFA8EFA44EA034309FB0AF49C4202FA43
:100CC00007F200FA07F10BD91EEB030309F1FF301D
:100CD00080F087809C4240F28480A9F1020973442D
:100CE0001B1BADB2B3FBF8F008FB103345EA03441D
:100CF00000FB0AFAA24508D91EEB040400F1FF33F9
:100D00006BD2A24569D90238744440EA0940A0FB7D
:100D10000289A4EB0A044C45C2464B4654D351D039
:100D2000002E69D0B1EB0A0564EB030404FA0CFC55
:100D3000FD40FC404CEA0505C6E90054002747E7A2
:100D4000C2F1200320FA03F7954001FA02F021FADC
:100D500003F34FEA154E3843010CB3FBFEF71FFABD
:100D600085F80EFB173341EA034107FB08F38B427A
:100D700004FA02F407D9691807F1FF3C2FD28B421D
:100D80002DD9023F2944CB1A81B2B3FBFEF00EFBF2
:100D9000103341EA034100FB08F38B4207D969187D
:100DA00000F1FF3C17D28B4215D902382944C91AE9
:100DB00040EA07473BE73746304609E70746E7E69C
:100DC0001846FBE64145ABD2B8EB020A69EB0E02CE
:100DD00001381346A4E76046E9E7184695E76746F9
:100DE000D1E781467CE702382C4447E7ACF1020C9E
:100DF0002B442FE7384608E73746E9E600000000B5
:100E0000704700BF0000000000000000000000006C
:100E1000844641EA000313F003036DD1403A41D305
:100E200051F8043B40F8043B51F8043B40F8043BC4
:100E300051F8043B40F8043B51F8043B40F8043BB4
:100E400051F8043B40F8043B51F8043B40F8043BA4
:100E500051F8043B40F8043B51F8043B40F8043B94
:100E600051F8043B40F8043B51F8043B40F8043B84
:100E700051F8043B40F8043B51F8043B40F8043B74
:100E800051F8043B40F8043B51F8043B40F8043B64
:100E900051F8043B40F8043B51F8043B40F8043B54
:100EA000403ABDD2303211D351F8043B40F8043BF4
:100EB00051F8043B40F8043B51F8043B40F8043B34
:100EC00051F8043B40F8043B103AEDD20C3205D304
:100ED00051F8043B40F8043B043AF9D2043208D0FC
:100EE000D2071CBF11F8013B00F8013B01D30B886E
:100EF00003806046704700BF082A13D38B078DD04C
:100F000010F003038AD0C3F10403D21ADB071CBF1D
:100F100011F8013B00F8013B80D331F8023B20F887
:100F2000023B7BE7043AD9D3013A11F8013B00F8C0
:100F3000013BF9D20B7803704B7843708B78837048
:100F40006046704700000000000000000000000044
:100F500090F800F06DE9024520F007016FF0000CF9
:100F600010F0070491F820F040F049804FF00004A1
:100F70006FF00700D1E9002391F840F000F108007C
:100F800082FA4CF2A4FA8CF283FA4CF3A2FA8CF3B4
:100F90004BBBD1E9022382FA4CF200F10800A4FA1B
:100FA0008CF283FA4CF3A2FA8CF3E3B9D1E904236F
:100FB00082FA4CF200F10800A4FA8CF283FA4CF3A6
:100FC000A2FA8CF37BB9D1E9062301F1200182FA60
:100FD0004CF200F10800A4FA8CF283FA4CF3A2FA66
:100FE0008CF3002BC6D0002A04BF04301A4612BA74
:100FF000B2FA82F2FDE8024500EBD2007047D1E977
:10100000002304F00305C4F100004FEAC50514F005
:10101000040F91F840F00CFA05F562EA05021CBFD6
:1010200063EA050362464FF00004A9E700000000F0
:1010300001F0FF01102A2BDB10F0070F08D010F889
:10104000013B013A8B422DD010F0070F42B3F6D18D
:10105000F0B441EA012141EA014122F007047FF0A6
:1010600000070023F0E80256083C85EA010586EAFD
:10107000010685FA47F5A3FA87F586FA47F6A5FA39
:1010800087F68EB9EED1F0BC01F0FF0102F0070245
:1010900032B110F8013B013A83EA010313B1F8D1F0
:1010A0000020704701387047002D06BF35460338D1
:1010B000073815F0010F07D1013015F4807F02BF0A
:1010C000013015F4C03F0130F0BC0138704700BF5B
:1010D0004FF0FF3C06E000BF4FF0010C02E000BF04
:1010E0004FF0010C4DF804CD4FEA410C7FEA6C5CE7
:1010F0004FEA430C18BF7FEA6C5C1BD001B050EA8A
:10110000410C0CBF52EA430C91EA030F02BF90EA74
:10111000020F0020704710F1000F91EA030F58BF33
:10112000994208BF90422CBFD8176FEAE37040F095
:10113000010070474FEA410C7FEA6C5C02D150EA33
:10114000013C07D14FEA430C7FEA6C5CD6D152EAEE
:10115000033CD3D05DF8040B704700BF84461046B3
:1011600062468C461946634600E000BF01B5FFF7B2
:10117000B7FF002848BF10F1000F01BD4DF808ED82
:10118000FFF7F4FF0CBF012000205DF808FB00BF53
:101190004DF808EDFFF7EAFF34BF012000205DF8AD
:1011A00008FB00BF4DF808EDFFF7E0FF94BF0120FA
:1011B00000205DF808FB00BF4DF808EDFFF7CEFFFB
:1011C00094BF012000205DF808FB00BF4DF808ED3A
:1011D000FFF7C4FF34BF012000205DF808FB00BF0B
:1011E0004FEA410C7FEA6C5C02D150EA013C0AD123
:1011F0004FEA430C7FEA6C5C02D152EA033C02D115
:101200004FF0000070474FF00100704700000000F1
:1012100070B5124C124D23682A6884B00646ADF8AA
:1012200006101B680F490392204605229847236841
:1012300002221B680DF10601204698472368BDF87D
:1012400006201B68314620469847039A2B689A422D
:1012500001D104B070BD00F043F800BFAC790020AC
:1012600000080020405001080000000000000000BD
:1012700000B5134B83B01B68019308F061FD06F0C5
:10128000A7FA01F075FA0F4A0F49104806F0C0F9A5
:101290000F4910480AF01CF802F072F801F0E8FC5F
:1012A00000F056FC00F0D4FD00F0BAF801F098FF11
:1012B00001F0E6FF06F084F9C82007F0A1F9FBE78A
:1012C00000080020040800200C080020E81400207A
:1012D00020080020AC790020000000000000000081
:1012E00000B5084B83B01A680192019A1B689A42B4
:1012F00005D1054803B05DF804EB06F0D1BAFFF75D
:10130000EFFF00BF0008002050500108000000005F
:1013100010B5124A124B926912499161ADF5227DC6
:101320001B68A19301A84FF42072002110F088FCE3
:101330000D4C204607F06CFC00F0E2FC0DF10302BE
:10134000002110F811300131DB08B1F5207F02F8DF
:10135000013FF6D101A8FFF75BFFEAE7786B0020B9
:1013600000080020805001082C0800200000000028
:1013700080B5234C234AA36923491668996186B036
:10138000022320250A220021009305964FF42073A2
:10139000CDE9015530201D4E1D4F00F0A9FE00F093
:1013A0005FFC002000F094FCB04600F0F9FB13E075
:1013B00006F0EEFE06F034FB07F0E2FB2368A342E2
:1013C00007D0A2699B6892689A4202D2384606F01A
:1013D00067FA002383F3118800F0BAFC00F020FCC8
:1013E00085F3118807F0B4FB06F0FAFA06F0C8FBA3
:1013F000B368002BDCDC404607F06AFCD8E700BF8E
:10140000786B002000080020705001082C08002094
:1014100090500108000000000000000000000000E3
:1014200030B50E4C0E4B22680E4885B00025039255
:1014300044F2C8714022009507F04AF80A4B009523
:1014400040220A484FF41E7107F042F8039A2368BD
:101450009A4201D105B030BDFFF742FF00080020DD
:10146000111300087017002071130008F8140020F1
:1014700030B51C4D83B02B68019311F00C0F04465E
:101480000AD00378032B13D00622636822709A686F
:101490001AB100212046904763685B68CBB101997F
:1014A0002A6891421BD1204603B0BDE8304018475E
:1014B00081680D4A0B6823F001030B60906AA168F4
:1014C00003E0936A1B1AC72BDED80B68DB07DBD55A
:1014D000F7E7019A2B689A4201D103B030BDFFF7BC
:1014E000FFFE00BF00080020786B00200000000015
:1014F000F0B52F4D83B02B68019307F0F1FA06F099
:10150000EFFA2C4B1E69F10715D55A692A4C42F0A7
:1015100001025A612778BB1F012B2AD90522636873
:1015200022701B680BB120469847042F27D0022F4A
:1015300025D003232370B20710D51E4A1E4C5369D1
:1015400043F0020353612378032B1DD063689B682B
:101550000622227013B101211748984706F0E8FAD5
:10156000019A2B689A4220D103B0BDE8F04008F000
:10157000A7BB019A2B689A4217D103B0F0BD022392
:10158000B2072370EAD5D8E7A1680C4A0B6823F0AC
:1015900001030B60906AA16803E0936A1B1AC72BD2
:1015A000D4D80B68DB07D1D5F7E7FFF799FE00BF6A
:1015B0000008002000000550385F0020786B0020F4
:1015C00030B50B4D0B4C2B6883B02046019300F0D7
:1015D0002FF9019A2B680848084D094921619A4260
:1015E000C4E9025001D103B030BDFFF779FE00BF5E
:1015F00000080020385F0020FC5C01080000055056
:10160000165502020000000000000000000000006B
:101610002DE9F0412F4C0578266882B0012D019606
:1016200006D0019A23689A4251D102B0BDE8F081F8
:10163000294DA842F5D10E4690461F46274AE86834
:101640002B460C210BF0F4F9002839D1D5E90232F0
:10165000126828339360EB681A68042151611B6893
:10166000C3F80C80EB681A6817611B68B6085E60E7
:101670002B694FB343F48023EA682B611168184A41
:101680000B60EB6819680B6843F001030B60536B48
:1016900043F0010353630B214E200AF089FED5E984
:1016A0000113DA6842F00102DA60DA6842F00202FD
:1016B000DA60CA6822F4804222F001021A60B0E7C0
:1016C000084806F0EDF8C1E723F48023D4E7FFF7DC
:1016D00007FE00BF00080020385F002071140008DA
:1016E00000380240A0500108000000000000000087
:1016F00030B5184C0378226883B0022B019205D0D4
:10170000019A23689A4223D103B030BD124B98420C
:101710000546F5D18168114A0B6823F4804323F014
:1017200001030B608168CB6823F00F03CB60536B20
:1017300023F0010353634E200AF062FE019A2368EE
:101740009A4205D1E86803B0BDE830400BF0D8B943
:10175000FFF7C6FD00080020385F00200038024077
:1017600000B50F4B0278196883B0022A01910ED19F
:1017700081680A6842F002020A6081680A6842F4DD
:1017800080420A6081680A6842F001020A60019A98
:101790001B689A4202D103B05DF804FBFFF7A0FD7D
:1017A0000008002000000000000000000000000011
:1017B00000B50F4B0278196883B0022A01910ED14F
:1017C00081680A6822F002020A6081680A6842F4AD
:1017D00080420A6081680A6842F001020A60019A48
:1017E0001B689A4202D103B05DF804FBFFF778FD55
:1017F00000080020000000000000000000000000C1
:1018000000B5074B83B01A680192019A1B689A428F
:1018100004D103B05DF804EBFFF7D2BEFFF760FD23
:101820000008002000000000000000000000000090
:1018300000B5084B83B01A68019201220270019A28
:101840001B6800219A42416002D103B05DF804FB9D
:10185000FFF746FD00080020000000000000000027
:101860002DE9F043254D83B02C680194DDF82890D4
:101870000F4616469846044618B111B1204B9A42BD
:101880002FD9204806F00CF8202383F3118807F0A5
:101890005FF906F0A5F82378012B02D0194805F06E
:1018A000FFFF4246314620464B466760FFF7B0FED9
:1018B0000223237006F0B4F807F062F9124B1A689D
:1018C0009A4204D0996993688A689A420FD3002398
:1018D00083F31188019A2B689A420CD103B0BDE8BA
:1018E000F0839307CDD1B8F1000FCDD1C9E70748F8
:1018F00005F0D6FFEBE7FFF7F3FC00BF0008002080
:10190000FCFF0300D0500108786B0020C050010894
:1019100030B51C4D83B02B680193044658B3202387
:1019200083F3118807F014F906F05AF82378022B94
:1019300002D0154805F0B4FF2046FFF7D9FE012379
:10194000237006F06DF807F01BF9104B1A689A42E5
:1019500004D0996993688A689A4208D3002383F374
:101960001188019A2B689A4209D103B030BD08480A
:1019700005F096FFF2E7044805F092FFCFE7FFF786
:10198000AFFC00BF00080020E0500108786B002089
:10199000C05001080000000000000000000000002E
:1019A00030B51C4D83B02B680193044658B32023F7
:1019B00083F3118807F0CCF806F012F82378022B95
:1019C00002D0154805F06CFF2046FFF7C9FE04233E
:1019D000237006F025F807F0D3F8104B1A689A42E6
:1019E00004D0996993688A689A4208D3002383F3E4
:1019F0001188019A2B689A4209D103B030BD08487A
:101A000005F04EFFF2E7044805F04AFFCFE7FFF785
:101A100067FC00BF00080020F0500108786B002030
:101A2000C05001080000000000000000000000009D
:101A300030B51C4D83B02B680193044658B3202366
:101A400083F3118807F084F805F0CAFF2378022B8E
:101A500002D0154805F024FF2046FFF7A9FE032316
:101A6000237005F0DDFF07F08BF8104B1A689A42DF
:101A700004D0996993688A689A4208D3002383F353
:101A80001188019A2B689A4209D103B030BD0848E9
:101A900005F006FFF2E7044805F002FFCFE7FFF785
:101AA0001FFC00BF0008002010510108786B0020C7
:101AB000C05001080000000000000000000000000D
:101AC00000B5064B83B01A680192019A1B689A42CE
:101AD00002D103B05DF804FBFFF702FC0008002010
:101AE00000B5064B83B01A680192019A1B689A42AE
:101AF00002D103B05DF804FBFFF7F2FB0008002001
:101B000010B5104C104B226882B0019201221A705D
:101B1000202383F3118807F04BF805F0A1FF0B4851
:101B200007F026FC05F0BCFF07F05AF8002383F30A
:101B30001188019A23689A4201D102B010BDFFF7C3
:101B4000CFFB00BF00080020585F002038080020AD
:101B500030B50E4D0E4C2B6883B00193FFF750FE4D
:101B6000206808B10FF03CFD4FF496400FF030FDB7
:101B700001992A682060B0FA80F35B099142C3F1B1
:101B8000000001D103B030BDFFF7AAFB0008002020
:101B9000505F002000000000000000000000000076
:101BA00030B5174D174C2B78226885B0012B039266
:101BB00020D000F0F5FC144B1B78ABB9B0F5964F74
:101BC00015D8124A124B12681B681249009202463D
:101BD0001148FFF745FE01232B700020039A23686C
:101BE0009A420BD105B030BDB0F5165FE9D94FF080
:101BF000FF30F3E70848FFF78BFEDAE7FFF770FBEB
:101C00004D5F0020000800204E5F0020545F002040
:101C1000505F002020510108385F002000000000C4
:101C200010B50B4C0B48236882B0019307F0B0F855
:101C3000094807F0C5FB019A23689A4205D1054877
:101C400002B0BDE8104007F04BBAFFF749FB00BFF8
:101C50000008002040080020380800200000000094
:101C600030B5154D154C164B2268286883B001928B
:101C700001221A7008B10FF0B3FC4FF416500FF0A8
:101C8000A7FC286098B10F4D286808B10FF0A8FC98
:101C90004FF416500FF09CFCB0FA80F35B092860FB
:101CA0005842019A23689A4204D103B030BD4FF0E4
:101CB000FF30F6E7FFF714FB505F0020000800201C
:101CC0004E5F0020545F0020000000000000000074
:101CD00000B5074B07491A68087083B00192019A52
:101CE0001B689A4202D103B05DF804FBFFF7F8FAD3
:101CF000000800204C5F00200000000000000000F1
:101D000000B50D4A0D4B1278196883B0019142B1AC
:101D10000B4AD26812681268120302D4094A10688A
:101D200001E0094A1068019A1B689A4202D103B087
:101D30005DF804FBFFF7D4FA4E5F00200008002096
:101D4000385F0020545F0020505F0020000000003A
:101D500000B50E4A0E4B1278196883B001914AB152
:101D6000019A1B689A420FD10A4803B05DF804EB50
:101D7000FFF75EBE019A1B689A4205D1054803B081
:101D80005DF804EBFFF70CBEFFF7AAFA4C5F0020EA
:101D900000080020385F0020000000000000000064
:101DA00070B5274D82B02B680193064601220321AE
:101DB0006E2000F06DFC044630B1019A2B689A4207
:101DC00020463AD102B070BD32464E216E2000F05E
:101DD0005FFC04460028F0D1442E07D00246B7210C
:101DE0006E2000F055FCB8B10446E6E70122B721A9
:101DF0006E2000F04DFC0028F6D1224603216E2013
:101E000000F046FC0028EFD1032211216E2000F0E3
:101E10003FFC78B10446D0E7224603216E2000F053
:101E200037FC0028E0D10A2211216E2000F030FC9E
:101E30000028D9D1034B1E71BFE7FFF751FA00BF4D
:101E4000000800205C5F002000000000000000008F
:101E500030B5A04C83B02368019300F0C1FB9E49CC
:101E60009E4808F0FDFB012200219C4808F048FC38
:101E7000002203216E2000F00BFC30B1019A236890
:101E80009A4240F0258103B030BD02465B216E20AE
:101E900000F0FEFB0028F1D1012203216E2000F0AA
:101EA000F7FB0028EAD102224E216E2000F0F0FB61
:101EB0000028E3D10246B7216E2000F0E9FB00289C
:101EC000DCD1024603216E2000F0E2FB0028D5D1D0
:101ED0000A2211216E2000F0DBFB02460028CDD142
:101EE0007F4D022303216E202B7100F0D1FB0028CF
:101EF000C4D1024608216E2000F0CAFB0028BDD1E3
:101F0000F02209216E2000F0C3FB0028B6D1002288
:101F10000A216E2000F0BCFB0028AFD1B4220B21B7
:101F20006E2000F0B5FB0028A8D101220C216E2004
:101F300000F0AEFB0028A1D18F220D216E2000F011
:101F4000A7FB00289AD101220E216E2000F0A0FBF1
:101F5000002893D12B220F216E2000F099FB02461E
:101F600000288BD135216E2000F092FB002885D10E
:101F7000F02236216E2000F08BFB00287FF47EAF2C
:101F8000012237216E2000F083FB00287FF476AF1A
:101F90008F2238216E2000F07BFB00287FF46EAF8B
:101FA000002239216E2000F073FB00287FF466AF19
:101FB000B4223A216E2000F06BFB00287FF45EAF64
:101FC00001223B216E2000F063FB00287FF456AF16
:101FD0002B223C216E2000F05BFB00287FF44EAFEB
:101FE00001223D216E2000F053FB00287FF446AF14
:101FF00025223E216E2000F04BFB00287FF43EAFEF
:1020000001223F216E2000F043FB00287FF436AF11
:102010005A2240216E2000F03BFB024600287FF44C
:102020002DAF41216E2000F033FB00287FF426AF56
:10203000DC2242216E2000F02BFB00287FF41EAF33
:10204000012243216E2000F023FB00287FF416AF0D
:10205000042244216E2000F01BFB00287FF40EAF09
:10206000012203216E2000F013FB00287FF406AF4D
:10207000202293216E2000F00BFB00287FF4FEAE9F
:10208000202294216E2000F003FB00287FF4F6AE9E
:10209000012203216E2000F0FBFA024600287FF4A3
:1020A000EDAE95216E2000F0F3FA00287FF4E6AE45
:1020B000F52296216E2000F0EBFA00287FF4DEAEC8
:1020C000084B2B60022220232A716B71AB71D5E67D
:1020D000FFF706F900080020305101089079002030
:1020E0005C5F0020A00078000000000000000000FD
:1020F0002DE9F04F8FB0DFF80084DDF860C0D8F82C
:1021000000400D940CF1FF355C1EB3F5207F9DF867
:1021100064909DF868B00C44154400F21282BCF53E
:10212000F07F00F20E82B1F5207F0E4600F212829F
:10213000B2F5F07F174600F21082A14280F00482CF
:10214000B4F5207F00F20082AA4280F00082B5F54B
:10215000F07F00F2FC81B9F1400F824600F0B081BF
:10216000B9F1800F23D0B9F1200F00F09C8100233A
:10217000CDE90033BBF1400F2FD0BBF1800F00F051
:10218000CB81BBF1200F00F0B9810023CDE90233F0
:10219000002203216E2000F07BFAA0B30D9AD8F83C
:1021A00000309A4240F0E2810FB0BDE8F08F9A070C
:1021B00040F0D681CC4A8C085900661CA2FB010174
:1021C000A2FB030204EB930406EBD2030093BBF1E2
:1021D000400F06EBD1030193CFD11CF0010F40F06B
:1021E000C281C14B7D084FEA4C026F1CA3FB021257
:1021F000A3FB0C1307EB9303029307EB920305EB8E
:102200005C050393C4E702465B216E2000F040FAB0
:102210000028C3D15046FFF7C3FD0028BED10246B7
:1022200003216E2000F034FA0028B7D1C6F307234B
:102230001A4608216E20049300F02AFA0028ADD136
:10224000F3B21A4609216E20059300F021FA002806
:10225000A4D1C7F307231A460A216E20069300F083
:1022600017FA00289AD1FBB21A460B216E20079369
:1022700000F00EFA002891D1C4F307231A460C216E
:102280006E20089300F004FA002887D1E3B21A46C2
:102290000D216E20099300F0FBF900287FF47EAF3A
:1022A000C5F307231A460E216E200A9300F0F0F9B9
:1022B00000287FF473AFEBB21A460F216E200B9308
:1022C00000F0E6F900287FF469AF049A35216E200A
:1022D00000F0DEF900287FF461AF059A36216E2008
:1022E00000F0D6F900287FF459AF089A37216E2004
:1022F00000F0CEF900287FF451AF099A38216E2002
:1023000000F0C6F900287FF449AF069A39216E2003
:1023100000F0BEF900287FF441AF079A3A216E2001
:1023200000F0B6F900287FF439AF0A9A3B216E20FD
:1023300000F0AEF900287FF431AF0B9A3C216E20FB
:1023400000F0A6F900287FF429AF009B3D21C3F3DC
:1023500007226E2000F09CF900287FF41FAF9DF843
:1023600000203E216E2000F093F900287FF416AF84
:10237000019B3F21C3F307226E2000F089F900285A
:102380007FF40CAF9DF8042040216E2000F080F90E
:1023900000287FF403AF029B4121C3F307226E2084
:1023A00000F076F900287FF4F9AE9DF8082042216C
:1023B0006E2000F06DF900287FF4F0AE039B4321FE
:1023C000C3F307226E2000F063F900287FF4E6AE25
:1023D0009DF80C2044216E2000F05AF900287FF46B
:1023E000DDAE012203216E2000F052F900287FF4B7
:1023F000D5AE4A4693216E2000F04AF900287FF4BA
:10240000CDAE5A4694216E2000F042F900287FF4A8
:10241000C5AE012203216E2000F03AF900287FF4B6
:10242000BDAE0134A31B07EE103ADFED307AB8EEF3
:10243000477ABAF1440F77EEC77A00F09980B0EE90
:10244000006AF2EE006AE7EE066A77EEA77AB0EE6F
:10245000667A67EE877ADFED266A87EEA67AFCEE6B
:10246000C77ACDED007A009B9521C3F307226E2039
:1024700000F00EF900287FF491AE9DF8002096211F
:102480006E2000F005F900287FF488AE194B013565
:10249000EF1BA41B5F801C8083F804A083F80590C9
:1024A00083F806B07AE610495A00A1FB030306EB55
:1024B0005303A1FB0212009306EB5203019359E66A
:1024C000D9074DD4084A74085900661CA2FB0101C3
:1024D000A2FB030204EB530406EB9203009306EB0A
:1024E0009103019346E600BFABAAAAAA00002244CA
:1024F0000000A3445C5F002000080020244A4FEA4B
:102500004C03A2FB0C1CA2FB032307EB530307EBBA
:102510005C02029203933BE61CF0030F23D11C4B99
:10252000BD084FEA4C026F1CA3FB0212A3FB0C1365
:1025300007EBD303029307EBD20305EB9C05039350
:1025400026E66FF0070029E66FF0030026E66FF03D
:10255000040023E66FF0010020E66FF002001DE6A4
:102560006FF005001AE66FF0060017E6FEF7B8FEFA
:10257000F2EE006A37EE267ADFED066A67EE277A1A
:1025800087EEA67AFCEEC77ACDED007A6BE700BF46
:10259000ABAAAAAA0000244400000000000000002A
:1025A00010B50A4B0A4A1988146858881B7982B0FA
:1025B000442B019400FB01F00199136818BF4000FF
:1025C000994201D102B010BDFEF78AFE5C5F002087
:1025D00000080020000000000000000000000000D3
:1025E00070B51B4B1B4E1B78326882B0012B0192D9
:1025F00005D0019A33689A4227D102B070BD1648BF
:1026000005224FF4807105460CF09AFA20246B697C
:1026100083F480736B61012005F0F2FF631E13F0F9
:10262000FF04F4D14FF4807140F2062229830A4856
:102630000CF086FA019A33689A4206D10749044899
:1026400002B0BDE8704007F053BEFEF749FE00BF80
:10265000F8750020000800200004024070510108B5
:1026600000B5084B83B01A680192019A1B689A4220
:1026700005D1054803B05DF804EB07F081BEFEF715
:102680002FFE00BF00080020F875002000000000A9
:10269000F0B52F4C2F4E89B03368079307460025BD
:1026A00020468DF818108DF819208DF8145007F079
:1026B00037FF2378012B0CD0042205AB0195029241
:1026C00000933946022306AA204607F0B9FE0546C4
:1026D00048B91F4807F044FF0020079A33689A4220
:1026E00034D109B0F0BD204607F092FE27781A4B8E
:1026F000052F186004D0164807F032FF68B2ECE7E7
:10270000204607F03DFE2378012BF4D113483A46CA
:102710004FF4807107460CF013FA20247B6983F490
:1027200080737B61012005F06BFF631E13F0FF04D3
:10273000F4D14FF48071398340F2062207480CF03F
:10274000FFF90749024807F0D3FDD4E7FEF7C8FDBB
:10275000F875002000080020645F0020000402409B
:10276000705101080000000000000000000000009F
:1027700070B5304E304D3368304A82B001936B688B
:1027800043F004036B60536A43F4803353622023A5
:1027900083F3118806F0DCF9294C05F021F9294B67
:1027A0001722EA602B6105F03BF906F0E9F923688E
:1027B000A34204D0A2699B6892689A4234D3002352
:1027C00083F31188BFF36F8FBFF34F8F202383F301
:1027D000118806F0BDF905F003F9174B1A491B4A99
:1027E000D9601A6105F01CF906F0CAF92368A34202
:1027F00004D0A2699B6892689A4211D3002383F3A4
:102800001188BFF36F8FBFF34F8F0B4A536843F0AC
:1028100001035360019A33689A4209D102B070BD36
:102820000B4805F03DF8E9E7094805F039F8C6E737
:10283000FEF756FD0008002090ED00E000ED00E0FE
:10284000786B0020090000101000002039000013F0
:10285000E05101080000000000000000000000003E
:1028600070B51A4D1A4C1B4E0FCD0FC49EB02A687E
:10287000336822801D93EFF30981682203A8FEF7D5
:10288000C7FA154B9D6AAA0714D4EB0708D5124B5B
:1028900008995B6B114A00910D4880210FF020FAD6
:1028A0001D9A33689A420FD109481EB0BDE87040A6
:1028B00004F0F6BF099A5B6B0092A4F11000084A7D
:1028C00080210FF00DFAE0E7FEF70AFDC451010880
:1028D000685F00200008002000ED00E0A051010822
:1028E000805101080000000000000000000000000E
:1028F00000B51F4B0278196883B00191E2B11D4AFF
:102900004FF4005111834278EAB11A4A4FF48051D2
:1029100011838278F2B1174A4FF480411183C27853
:10292000FAB9144A4FF400415183019A1B689A4244
:102930001CD103B05DF804FB0E4A4FF400515183E3
:102940004278002AE1D10B4A4FF4805151838278BA
:10295000002AE0D1074A4FF480415183C278002A0F
:10296000DFD0044A4FF400411183DEE7FEF7B8FCE4
:1029700000080020001002400000000000000000DD
:1029800000B51F4B0278196883B00191E2B11D4A6E
:102990004FF4007111834278EAB11A4A4FF4807102
:1029A00011838278F2B1174A4FF400611183C27823
:1029B000FAB9144A4FF480615183019A1B689A4214
:1029C0001CD103B05DF804FB0E4A4FF40071518333
:1029D0004278002AE1D10B4A4FF48071518382780A
:1029E000002AE0D1074A4FF400615183C278002ADF
:1029F000DFD0044A4FF480611183DEE7FEF770FCFC
:102A0000000800200010024000000000000000004C
:102A100030B50C4A0C4B116883B04FF4005501914E
:102A20004FF480544FF400414FF480405D835C8349
:102A30005883598301991368994201D103B030BD7D
:102A4000FEF74EFC000800200010024000000000CD
:102A500030B50C4A0C4B116883B04FF400750191EE
:102A60004FF480744FF480614FF400605D835C83A9
:102A70005883598301991368994201D103B030BD3D
:102A8000FEF72EFC000800200010024000000000AD
:102A900010B50B4C0B48236882B09922002101939A
:102AA00007F02EFE019A23689A4206D105480021BC
:102AB00002B0BDE8104007F00BBFFEF711FC00BFED
:102AC00000080020587900200000000000000000ED
:102AD00010B50B4C0B48236882B09922002101935A
:102AE00007F00EFE019A23689A4206D1054800219C
:102AF00002B0BDE8104007F0EBBEFEF7F1FB00BFEF
:102B00000008002074790020000000000000000090
:102B100000B5084B83B01A680192019A1B689A426B
:102B200006D10548002103B05DF804EB07F038BE7C
:102B3000FEF7D6FB000800205879002000000000B6
:102B400000B5084B83B01A680192019A1B689A423B
:102B500006D10548002103B05DF804EB07F020BE64
:102B6000FEF7BEFB00080020747900200000000082
:102B700070B51A4C1A4E2378326882B0022B01923B
:102B8000A26811D165781748013505F0070500EBFB
:102B90008500904763686570013B6360019A336804
:102BA0009A4219D102B070BD012B08D00199336847
:102BB000994211D10C4802B0BDE8704010476578C9
:102BC0000848013D05F0070500EB85009047636864
:102BD000657001336360E1E7FEF782FB006000206F
:102BE0000008002080520108705201080000000017
:102BF00070B51A4C1A4E2378326882B0012B0192BC
:102C0000A26811D165781748013505F0070500EB7A
:102C1000850090476368657001336360019A33688B
:102C20009A4219D102B070BD022B08D001993368C5
:102C3000994211D10C4802B0BDE870401047657848
:102C40000848013D05F0070500EB850090476368E3
:102C50006570013B6360E1E7FEF742FBE85F00203F
:102C60000008002080520108705201080000000096
:102C700070B5264E26493068264A274B274C82B02D
:102C80004FF400550190264888602648C8602648C1
:102C90000861002010705070087048705D834FF418
:102CA00080555D834FF480455D834FF400455D831F
:102CB0004FF400755D834FF480755D834FF40065BC
:102CC0005D834FF480655D834860184D4C61184901
:102CD0005060184B9560D160174D1849136120461C
:102CE000556107F0BDFC204607F0AAFD28461449AF
:102CF00007F0B6FC019A33689A4205D1284602B023
:102D0000BDE8704007F09CBDFEF7EAFA000800201D
:102D100000600020E85F0020001002405879002089
:102D2000F1280008912A0008112B000881290008C9
:102D3000D12A0008412B0008747900203052010884
:102D4000F051010800000000000000000000000039
:102D50000A490B4B09680B4A82B02020019140219F
:102D600058834FF4806559834FF400644FF48040DA
:102D700004215D835C8358835183FEE700080020B3
:102D8000000C0240000402400000000000000000AF
:102D900010B51E491E4A0B78106882B0013B0190A5
:102DA000072B0AD8DFE803F012151C1F26290F0491
:102DB00018480824012304830B7001991368994271
:102DC00021D102B010BD08230B70F6E702230B706F
:102DD000F3E711484FF48054032304830B70ECE7AE
:102DE00004230B70E9E70C484FF480440523048367
:102DF0000B70E2E706230B70DFE706480424072385
:102E000004830B70D9E7FEF76BFA00BF98630020CC
:102E100000080020001002400004024000000000F2
:102E200030B50C4B0C4918680C4A83B04FF4804500
:102E300001904FF480504883042408204D8354832C
:102E40005083019A1B689A4201D103B030BDFEF74E
:102E500047FA00BF000800200004024000100240B2
:102E60002DE9F04F814B824A9B6982499961A5B057
:102E700005AD07AE8023176800932A46002431462B
:102E80000CA87D4B0B94CDE90555CDE9094423975A
:102E9000CDE9076604F0D4FB0CA9784A7848764C53
:102EA000784DDFF8FCB1DFF8F4A104F0F1FB7648CF
:102EB00005F0AEFEA96828682060401AD5F810E039
:102EC0000290A869D5F82490C4F804E0AEEB000E97
:102ED0006869AB6AD5F820C0AA6B2F6B6E68216257
:102EE000C4E90509A869E968D5F83480C4F808C0C0
:102EF000C4E90903ACEB030CEB69E7602661BF1A78
:102F0000761AC4F81C80E2622163EA6AE96B6363A3
:102F10006869A263C31A0298E163A9EB0209A8EBEE
:102F20000108206480225449C4F85C800CA8C4E9DC
:102F30001539C4E911ECC4E9137604F0D9FB9BF808
:102F40000030002BB3D0514B1E78002E7DD0012EC7
:102F5000ADD14F4B276C93F800C0A36CDAE90206A1
:102F60000CF1010C03444A485FFA8CFCDAE90012C8
:102F700080F800C0E06C3018666D02903944676CD0
:102F8000206DCAF80010B046DAF814603A44DAF856
:102F90001070B044A66D00EB070EE06DDAF81C70FF
:102FA000B146DAF8186007440298CAF81C70B144B8
:102FB000BCF1640FCAE90123CAE9030ECAE9058915
:102FC0007FF475AF334E86FB01C0C917039186FBB2
:102FD000021C0399C1EB6011039186FB0310029957
:102FE000D217DB17C2EB6C128C4686FB0C1CC3EBB2
:102FF00060100299274BCE1783FB0E134FEAEE7E2B
:103000002449CEEB631E234BC6EB6C1681FB081CD8
:1030100083FB09131F494FEAE878C8EB6C184FEAA5
:10302000E97981FB071CFF170399C9EB6319C7EB0B
:103030006C130027C4E91812C4E91A06C4E91CE895
:10304000C4E91E938BF8007031E720223146124804
:103050000EF0F6FD2022314610480EF0F1FD0C4A2C
:1030600016700A4A0123137021E700BF786B002015
:1030700000080020A05201089C600020E0520108D6
:10308000E814002038600020540800207A600020F6
:10309000796000201F85EB51FC6000207C600020DF
:1030A0007860002000000000000000000000000028
:1030B00070B50269454E464B528882B0054630686D
:1030C000019092000C46184600210EF0B9FD2A69C5
:1030D0005188002957D0218801605188012952D98F
:1030E00061884160518802294DD9A1888160518849
:1030F000032948D9E188C1605288042A43D922892A
:1031000002612A695288052A3DD9628942612A6989
:103110005288062A37D9A28982612A695288072AE9
:1031200031D9E289C2612A695288082A2BD9228AB8
:1031300002622A695288092A25D9628A42622A696A
:1031400052880A2A1FD9A28A82622A6952880B2AC7
:1031500019D9E28AC2622A6952880C2A13D9228BB1
:1031600002632A6952880D2A0DD9628B42632A694B
:1031700052880E2A07D9A28B82632A6952880F2AA5
:1031800084BFE28BC263202383F3118805F010FD16
:1031900004F066FC04F0F4FC0E488368002B0FDD9D
:1031A00004F07EFC05F01CFD002383F31188019AD6
:1031B0003368094901209A42087004D102B070BDF9
:1031C00005F086FDECE7FEF78BF800BF0008002055
:1031D00038600020540800209863002000000000A0
:1031E00070B51F4D1F4C2E78236884B0012E0393B9
:1031F00005D0039A23689A422FD104B070BD0021F4
:10320000284606F0ADFE284606F04AFF334628461B
:10321000154A164906F0ECFE1549164807F020FA43
:103220004FF496720021134807F06AFA0021114802
:1032300007F04EFB0F4807F003FB31464FF4827254
:103240000C4807F05DFA0023009340220A4B0B481C
:103250004FF41E7105F03CF9CBE7FEF741F800BFD3
:10326000D47200200008002018600020B05201082D
:10327000F05201083C790020612E000820610020F6
:1032800030B50C4D0C4A2B680C4C83B000210193D7
:10329000012311702370142005F0B2F92378002B5C
:1032A000F9D1019A2B689A4201D103B030BDFEF7E3
:1032B00017F800BF000800207A6000207860002026
:1032C00000B50F4B83B01868019002290CD0032978
:1032D0000CD001290B4818BF0020019A1B689A42A4
:1032E0000BD103B05DF804FB0748F6E7032A96BF4D
:1032F0000648002000EBC200EFE7FDF7F1FF00BF3A
:103300000008002010540108B0530108C0540108FF
:1033100070B5154C82B02368019302291CD10D466B
:103320000646202383F3118805F042FC04F098FB45
:1033300030460E4A012108F06BFC29460C4A304603
:1033400008F066FC0B4808F063FA04F0A9FB05F0EE
:1033500047FC002383F31188019A23689A4201D124
:1033600002B070BDFDF7BCFF00080020305301081B
:10337000605301089C630020000000000000000072
:1033800030B5134D134C2B68134883B0019308F0EC
:10339000B7F91249104808F0E3F9226D936B23F452
:1033A000002393634FF47A7005F02AF920460C4904
:1033B00008F0DEFB226D936B43F400239363019AC4
:1033C0002B689A4201D103B030BDFDF789FF00BFE1
:1033D00000080020387600209C63002090530108EC
:1033E000A0530108000000000000000000000000E1
:1033F00000B5084B83B01A680192019A1B689A4283
:1034000005D1054803B05DF804EB05F0C1BCFDF73C
:1034100067FF00BF000800206008002000000000D7
:1034200000B5084B83B01A680192019A1B689A4252
:1034300005D1054803B05DF804EB05F051BEFDF77A
:103440004FFF00BF000800206008002000000000BF
:1034500070B50D4C82B0236801930D1E06460DDD3C
:10346000284606F0A5FB18B90C2333604FF0FF3057
:10347000019A23689A4205D102B070BD034804F056
:103480000FFAEDE7FDF72CFF00080020E0540108DB
:1034900000B5064B83B01A680192019A1B689A42E4
:1034A00002D103B05DF804FBFDF71AFF000800200D
:1034B00000B5074B83B01A680192019A1B689A42C3
:1034C00004D103B05DF804EB05F062BCFDF708FF22
:1034D00000080020000000000000000000000000C4
:1034E00000B5074B83B01A680192019A1B689A4293
:1034F00004D103B05DF804EB05F0F2BDFDF7F0FE7A
:103500000008002000000000000000000000000093
:1035100000B5074B83B01A680192019A1B689A4262
:1035200004D103B05DF804EB05F0DABEFDF7D8FE78
:103530000008002000000000000000000000000063
:1035400000B5074B83B01A680192019A1B689A4232
:1035500004D103B05DF804EB03F0B2BBFDF7C0FE8D
:103560000008002000000000000000000000000033
:103570002DE9F043534F027C3B680A7085B00E463C
:103580000DF10602F8210546039303F0A1FE38B1C0
:10359000039A3B689A4240F0938005B0BDE8F083FF
:1035A00002AA0421284603F0ABFE0028F0D1BDF8A2
:1035B000062042BBB368AB610021317302AA20210F
:1035C000284603F085FE0028E2D1BDF80830002B24
:1035D00059D0DB00012233612B622A7706F11401F6
:1035E000284601F02DF80028D2D1044606F118092A
:1035F0004FF00108A3B2013B042B42D8DFE803F0EF
:103600002B2908474700029BB3FBF2F3B360D2E7D4
:10361000296C06EB84022B19516293F8283009F8C3
:10362000013B0134062CE5D102AA0121284603F012
:1036300037FE0028ACD19DF8083085F83031DB0921
:1036400086F83C30311D85F84C30284602F050FE9B
:103650009EE7E96BDDE702AA4421284603F038FE25
:10366000002895D1BDF808305902E3B9A300EA1843
:10367000E01A10443344526B5A620B4680F828100B
:10368000CDE7696BC5E72A6A32612B77A6E702AA04
:103690006421284603F01CFE00287FF479AFBDF8B2
:1036A00008104902B5E7A300E81806EB030CE31A7B
:1036B000C218CCF824100123416382F82880AEE7B9
:1036C000FDF70EFE000800200000000000000000D2
:1036D0002DE9F0417E4F92B005463B6811930022E0
:1036E000882103F07DFD7B4B7B497C4AC5F8523134
:1036F0000023C5F85811C5F8D42085F8F0302B62A6
:10370000284601A9FFF734FF044688B9ADF8040044
:1037100001AE0FCE05F1100CACE80F000FCEACE8F7
:103720000F000FCEACE80F0096E80F008CE80F00FA
:103730006B4BC5F8343101264FF420634FF4FA7215
:10374000A5F83C31A5F838218021324685F8506132
:10375000284603F045FD32468046FF21284603F007
:103760003FFD002248EA000011460443284603F0CA
:1037700037FD64B20DF1030204439121284603F0A2
:103780008FFD64B29DF8033085F83A310443324628
:103790000021284603F024FD64B200220443FF21E7
:1037A000284603F01DFD64B2044300228021284610
:1037B00003F016FD64B2204340B2002854D1044601
:1037C000A3B2013B04F10108042B04D8DFE803F0A5
:1037D0005E530E70770005EB0803B8F1060F85F80D
:1037E000286083F827600AD04446E9E705EB080320
:1037F000B8F1060F85F82B6083F82760F4D1002319
:103800006B85FE2202236021284603F019FD58BB78
:1038100085F82C001023EF226021284603F010FDCC
:1038200010BB95F8293085F82D004FF490126A638B
:103830002BB120224421284603F0EAFCA0B9002342
:103840004FF480404FF40C11FF22C5E90E012B64A8
:1038500085F830210121284603F0C2FC012385F8B8
:10386000323108B985F81501119A3B689A422DD179
:1038700012B0BDE8F08105EB0803B8F1060F85F83A
:103880002A6083F82760BAD0444699E705EB8403A1
:1038900044215A6B2846C2F34F2203F0B9FC00289A
:1038A000E2D12B194446062C83F8286088D1A6E77C
:1038B0000023FE226021284603F0C2FCEFE700232C
:1038C000EF226021284603F0BBFCE8E7FDF708FD86
:1038D00000080020E8039001856B0100A470090036
:1038E00064008403000000000000000000000000ED
:1038F000F0B5A24F97B005463B68159340220021D2
:1039000005A80EF09DF9002328460121ADF80A30E4
:103910008DF807308DF80830039301F0B9FB95F866
:103920001421012A04D895F8131150D00C2950D92C
:1039300002AA03A9284601F0A3F80446002C3BD1B3
:1039400095F85031002B3FD08D49284602F098FD64
:10395000044688BB04220A21284603F041FC0446A1
:1039600050BB0346EF228421284603F069FC04463D
:1039700010BB0423064685F8DA3001220B212846C5
:1039800003F02EFC002204460B21284603F028FCFD
:1039900004AA04431321284603F082FC9DF810304A
:1039A00064B2044301365B0764B2F6B216D0032E4C
:1039B00000F0DF80002CE0D0159A3B689A42204648
:1039C00040F0DA8017B0F0BDD5F84C11BDE72029E2
:1039D000AED8284600F064FE0446AFE7032E00F0A0
:1039E000C880002CE8D10122FF21284603F0F8FB13
:1039F0000DF10A0206468421284603F069FC22469E
:103A0000FF2146EA0004284603F0EAFB64B20443BF
:103A100064B2002CD0D1BDF80A301B01C5F8D430F7
:103A200005A92846FFF7A4FD04460028C4D10DF1DE
:103A300007020921284603F033FC04460028BBD1C5
:103A400005AE0FCE9DF807C005F110040CF0010C77
:103A500085F831C10FC40FCE0FC40FCE0FC496E846
:103A60000F008DF807C084E80F000DF10702012157
:103A7000284603F015FC044600289DD19DF8073028
:103A800085F8303104AA012128468DF8104003F052
:103A900007FC044600288FD19DF8103003F0EF0694
:103AA000B3420DD032460121284603F099FB04466B
:103AB000002881D185F830616969284602F050FB01
:103AC000002304AA012128468DF8103003F0E8FBFA
:103AD000044600287FF470AF9DF8103003F0FB0619
:103AE000B3420ED032460121284603F079FB04464A
:103AF00000287FF461AF85F830616969284602F0DB
:103B00002FFB032685F832610DF1090200212846BA
:103B100002F0FEFA044600287FF44EAF9DF809300B
:103B200085F8E8300DF109020121284602F0F0FA8B
:103B3000044600287FF440AF9DF8093085F8E03056
:103B4000314604AA284601F0E3FF044600287FF42A
:103B500033AF049BC5F8E43004AA0421284601F0E1
:103B6000D7FF044600287FF427AF049BC5F8DC305C
:103B700022E76FF00B041FE7FDF7B2FB00080020FF
:103B80007408002000000000000000000000000099
:103B900010B50C4C82B02368019315290CD8012272
:103BA000094B8A4013403BB101740020019A2368FD
:103BB0009A4204D102B010BD6FF00700F6E7FDF79E
:103BC0008FFB00BF000800200B0030000000000049
:103BD00000B5074B83B01A680192019A1B689A429C
:103BE00004D103B05DF804EB02F0BABAFDF778FB3C
:103BF000000800200000000000000000000000009D
:103C000010B5074B82B01C680194019C1B689C4254
:103C100004D102B0BDE8104002F042B8FDF760FBED
:103C2000000800200000000000000000000000006C
:103C300010B5074B82B01C680194019C1B689C4224
:103C400004D102B0BDE8104002F062BAFDF748FBB3
:103C5000000800200000000000000000000000003C
:103C600030B583B002AA144C002302F8053D0D467E
:103C700023680193012103F013FBA8B99DF80330D9
:103C80000246C3F3001161F30702C3F3800161F33D
:103C90000F22C3F3C00161F31742C3F3801161F334
:103CA0001F62DB092A602B71019A23689A4201D1B5
:103CB00003B030BDFDF714FB000800200000000039
:103CC00000B5084B027F18680A7083B00190019A12
:103CD0001B689A4203D1002003B05DF804FBFDF796
:103CE000FFFA00BF000800200000000000000000F4
:103CF000F0B52A4F83B03B680193052949D80E4699
:103D0000044615466AB100EB81020023526B9C46C3
:103D10000120711E042930D8DFE801F026231408A1
:103D20003200104602234FF0100CF2E7FE22602111
:103D3000204603F085FA70B9344445B9284684F822
:103D4000285008E084F82B003444002DF6D00123DD
:103D500084F828300020019A3B689A421CD103B0B5
:103D6000F0BD84F82A00EFE7C2F34F224421204639
:103D700003F04EFA0028DFD0EDE784F82800E3E7EF
:103D80006346EF226021204603F05AFA0028D3D080
:103D9000E1E76FF00300DEE7FDF7A2FA000800207C
:103DA00010B50B4B82B01C68019405290AD8014458
:103DB000002091F828101170019A1B689A4205D1D1
:103DC00002B010BD00216FF00300F4E7FDF788FAA0
:103DD00000080020000000000000000000000000BB
:103DE000F0B543181C4E83B0044693F8280033689E
:103DF00001930D46174630B105292AD8DFE801F0B6
:103E0000141E1A1C0C0C04EB81046263019A3368C3
:103E10009A421CD103B0F0BDC2F34F226421204668
:103E200003F0F6F908B1F1E7626304EB85040020C2
:103E30006763EBE7E263F8E72264F6E7C2F34F2239
:103E40004421204603F0E4F90028EED0DEE7FDF738
:103E500047FA6FF00300D9E70008002000000000D7
:103E600070B5204C82B0236801930546164605299B
:103E700034D8DFE801F0030E0C1E2020436B3360C2
:103E80000020019A23689A4226D102B070BDC36B0C
:103E9000F5E70DF10202442103F01AFA0028F0D1EF
:103EA000BDF802305A028BB9AB6B336085F829003C
:103EB000E7E7036CE3E70DF10202642103F008FA7F
:103EC0000028DED1BDF802305B02D8E70123326062
:103ED000AA6385F82930D4E7FDF702FA6FF00300F2
:103EE000CFE700BF00080020000000000000000035
:103EF00010B5084B82B01C680194019C1B689C4261
:103F000005D1012302B0BDE8104000F0C9BCFDF7A7
:103F1000E7F900BF000800200000000000000000DA
:103F20002DE9F041684F057C3B6882B004460122D0
:103F30008021019303F054F90122FF21204603F070
:103F40004FF900221146204603F04AF994F83A212D
:103F50009121204603F044F901220021204603F07C
:103F60003FF90022FF21204603F03AF920460022C3
:103F7000802103F035F9012D3BD019D3032D0AD050
:103F80006FF00706019A3B689A42304640F09980EC
:103F900002B0BDE8F08178B304220021204603F08E
:103FA0001FF906460028EDD1042384F83231E9E7F1
:103FB00001220021204603F013F9012306468DF863
:103FC00002300028DED10546002D59D001350DF113
:103FD00002020021204603F063F99DF80230DA075F
:103FE00047D5002845D1B5F5FA6FEDD16FF006063B
:103FF000C8E700B30222D0E794F8DA30013B022B85
:10400000CAD80DF102020E21204603F061F9DFF853
:10401000C080BDF8025008EA4545B0B3B5F57F0F42
:10402000BAD8B6F57F0FB7D90028B5D127492046B1
:1040300002F026FAB0E794F8DA30013B022BD9D827
:104040000DF102020E21204603F042F9204EBDF888
:10405000025006EA454530B3B5F57F0FCAD8B8F52A
:104060007F0FC7D90028C5D11849204602F008FAA9
:10407000C0E7B5F5FA6F14BF06466FF0060681E794
:10408000D9077FF57FAF0225A1E70DF102020C21D0
:10409000204603F01DF9B5F57F0FBDF80260C3D8C7
:1040A00008EA4646BDE70DF102020C21204603F066
:1040B0000FF9B5F57F0FBDF80280D3D806EA48485E
:1040C000CDE7FDF70DF900BF0008002068090020CA
:1040D0000000FE1F000000000000000000000000C3
:1040E00030B5184C90F8DA30226883B0042B019276
:1040F0000D460DF1030211D0142103F0D1F820B9BF
:104100009DF80330DB0706D42870019A23689A4291
:1041100015D103B030BD01232B70F6E7132103F056
:10412000BFF89DF8033013F0180F03F0070318BF12
:104130006FF00500042BEED000232B70E5E7FDF7B0
:10414000CFF800BF000800200000000000000000C1
:104150002DE9F047584F8EB03B680D930C460C2369
:104160000AAA1421054603F01BF88646002840F0F1
:104170008E809DF82EE09DF830C09DF82F209DF890
:1041800031109DF82A609DF82B30A07502EB0E22AD
:1041900001EB0C2192B289B249025202C4E9032117
:1041A00003EB0623C4E900009BB2A3829DF8328092
:1041B0009DF83360B5F852E195F831C19DF82810AB
:1041C00006EB0826BEF57A7FB6B21FD006FB0EF6C8
:1041D000DFF8E89095F81C80D5F820E006F5FA762F
:1041E000A9FB0696B609B8F1000F0ED01FFA8EFE95
:1041F00003FB0EFE4FEA2E2E724550D0B6B202FBE4
:1042000006F6A2EB0E0EB6FBFEF6B6B2BCF1000F40
:1042100004D04FEA861C5FFA8CFCB6080DF10B0047
:1042200084F817C02681CDE90040284602F010FC32
:10423000864660BB9DF80B8084F8188005F1500617
:104240000FCE0DF10C0CACE80F002389ADF8143043
:1042500096E807006389ADF81630E36894F817A074
:10426000B4F8149006932369646804948CE80700FA
:1042700003AC8DF824808DF823A00793ADF820902F
:104280000FCC50350FC59CE8070086E807000D9A53
:104290003B689A4270460CD10EB0BDE8F087BCF185
:1042A000000F03D0844640F6AE06B7E748F6E02696
:1042B000B4E7FDF715F800BF00080020D34D6210E9
:1042C0002DE9F0414B4E82B0002504463368057459
:1042D00001220F468021019302F082FF0122FF217B
:1042E000204602F07DFF2A462946204602F078FF4C
:1042F00094F83A219121204602F072FF29460122CA
:10430000204602F06DFF2A46FF21204602F068FF9A
:104310002A468021204602F063FF294620460122DA
:1043200002F05EFFC0B90DF10808012308F8053D51
:104330000546002D57D0013542460021204602F0A7
:10434000AFFF9DF80330DA070DD5002847D1B5F54A
:10435000FA6FEED16FF00600019A33689A4246D1A7
:1043600002B0BDE8F081B5F5FA6FF3D00028F3D1C3
:10437000204600F05DFE0028EED10323394684F884
:1043800032312046FFF7E4FE0028E5D1074601223E
:104390000B21204602F024FF002205460B21204677
:1043A00002F01EFF0DF1030205431321204602F027
:1043B00077FF9DF803306DB2284301375B0740B2A9
:1043C000FFB207D0032F02D00028E0D0C4E76FF07F
:1043D0000B00C1E7032F08BF6FF00B00BCE7B5F57A
:1043E000FA6FB7D0B8E7D907C2D50225A4E7FCF722
:1043F00077FF00BF00080020000000000000000060
:10440000F0B51A4F83B03B680193064600250122A0
:104410000B21304602F0E4FE002204460B21304618
:1044200002F0DEFE0DF1030204431321304602F0D8
:1044300037FF9DF8033064B2204301355B0740B27B
:10444000EDB20CD0032D07D00028E0D0019A3B68D4
:104450009A4209D103B0F0BD6FF00B00F6E7032DCF
:1044600008BF6FF00B00F1E7FCF73AFF00080020EF
:1044700010B5074B82B01C680194019C1B689C42DC
:1044800004D102B0BDE8104000F0FABAFCF728FFF2
:1044900000080020000000000000000000000000F4
:1044A0002DE9F04F89B0644CDDF84CB024680794D6
:1044B0009846149B03908E46009212990293BBF18A
:1044C000000F7FD0CF08052F01F0070A69D8DFF869
:1044D0006CC14FF00009009B7D1E1D443C460AF153
:1044E0000103BC42019315F8013F2AD013F00100EB
:1044F00062D15E080122F60730D4821C082A19D046
:104500005E072BD4C21C082A14D01E0726D4021D15
:10451000082A0FD0DE0621D4421D082A0AD09E06A2
:104520001CD4821D082A05D05E0617D4DB0908B901
:10453000002B43D1052C33D00134BC4215F8013F88
:10454000D4D143FA0AF3DBB2DA0706D4019A082A77
:10455000F0D05E085046019ACDE7524602EBC40205
:1045600002F1B4039B095CF82330003318BF012328
:10457000734515D1D108012418F8010002F0070392
:1045800004FA03F3A1440343D94508F8013002EBD0
:10459000040115D0CF08062F01F0070A9BD1302166
:1045A000029B19606FF03100234B079A1B689A42F7
:1045B00040D109B0BDE8F08F0022CFE70722CDE758
:1045C000DDE90230196042460623B02102F0C8FD41
:1045D0000028E9D1062305AA0398B02102F0E0FDE6
:1045E0009DF8142098F800309A4220D19DF81520AB
:1045F00098F801309A421AD19DF8162098F80230A6
:104600009A4214D19DF8172098F803309A420ED19F
:104610009DF8182098F804309A4208D198F805209F
:104620009DF819309A4218BF6FF03100BCE76FF067
:104630003100B9E7FCF754FE00080020200B0020F1
:1046400030B5134C83B00D46236801930DF102027F
:10465000282102F03DFE50B9BDF80230C3F30B0330
:10466000B3F5006F09D2FA2202FB03F32B60019A23
:1046700023689A420AD103B030BDA3F58053C3EB3F
:10468000431203EB82035B002B60F0E7FCF728FE8C
:1046900000080020000000000000000000000000F2
:1046A000F0B52D4E87B00F461546336805930122AD
:1046B000FF21044602F094FD88B30021C4F82411C0
:1046C000A4F828114DB3254883680122E3B104AB57
:1046D000CDE90017029304F5957204F5927329460B
:1046E0002046FFF7DDFE30B9012384F8137184F80A
:1046F000145184F81531059A33689A422AD107B0CB
:10470000F0BD2C290A46E2D002F1B5039B09511CE9
:1047100050F82330002BF4D0D9E72946D7E70246DA
:104720004F21204602F05CFD0028C6D12C224E21EC
:10473000204602F055FD02460028BED1FF2120464A
:1047400002F04EFD0028B8D1B422B621204602F076
:1047500047FDB2E7FCF7C4FD00080020200B002055
:104760002DE9F04F4D4F85B03C68039405468946CE
:1047700093461E469BB190F830A1022201212846A3
:1047800002F02EFD044660B1002389F80030039A40
:104790003B689A4220467ED105B0BDE8F08F9A462C
:1047A000EBE701460122284602F01AFD04460028E4
:1047B000EAD1284600F03CFC04460028E4D101463A
:1047C0002846FFF71DFE04460028DDD102460146BB
:1047D000284602F005FD04460028D5D1BBF1010FA3
:1047E0000ED089F80000002ED1D052460121284673
:1047F00002F0F6FC04460028C9D185F830A1C6E7CE
:1048000004AB5A4603F8054DFF212846CDE9003395
:1048100002F0E6FC224680462146284602F0E0FCF3
:10482000224648EA0008FF21284602F0D9FC009BF6
:104830004FFA88F81A4648EA0008EE21284602F0A6
:104840002FFD4FFA88F85A4648EA0008FF2128460B
:1048500002F0C6FC4FFA88F85A4648EA000821469A
:10486000284602F0BDFC4FFA88F848EA00082246C4
:10487000FF21284602F0B4FC4FFA88F89DF80B306F
:1048800048EA000023F0100340B289F80030002805
:10489000A9D004467BE7FCF723FD00BF00080020F9
:1048A0002DE9F04F744E90F8309183B092468B46CC
:1048B00001223168019111460546984602F090FCAC
:1048C000044658B100238BF80030019A33689A42AD
:1048D000204640F0CF8003B0BDE8F08F0146412272
:1048E000284602F07DFC04460028EBD1284600F063
:1048F0009FFB04460028E5D101462846FFF780FDCE
:1049000004460028DED102460146284602F068FC33
:1049100004460028D6D1B8F1010F39D08BF8000039
:1049200002220121284602F05BFC044618B1002354
:104930008AF80030C9E701460122284602F050FCFF
:1049400004460028F3D1284600F072FB04460028F4
:10495000EDD101462846FFF753FD04460028E6D175
:1049600002460146284602F03BFC04460028DED100
:10497000B8F1010F40D08AF800004A4601212846CC
:1049800002F02EFC044600289FD185F830919CE768
:104990004246FF21284602F023FC224621460746D4
:1049A000284602F01DFC22460743FF21284602F05C
:1049B00017FC7FB25A460743CB21284602F070FC11
:1049C0007FB242460743FF21284602F009FC7FB22E
:1049D000214642460743284602F002FC7FB22246A7
:1049E000FF2147EA0004284602F0FAFB64B20443C0
:1049F00064B2002C94D068E70DF1080B4246FF2109
:104A000028460BF8054D02F0EBFB224621460746EF
:104A1000284602F0E5FB22460743FF21284602F024
:104A2000DFFB7FB25A460743EE21284602F038FCEE
:104A30007FB242460743FF21284602F0D1FB7FB2F6
:104A4000214642460743284602F0CAFB7FB222466F
:104A5000FF2147EA0004284602F0C2FB64B29DF839
:104A60000330044323F0100364B28AF80030002CB2
:104A700083D02AE7FCF734FC000800200000000087
:104A80002DE9F04F97B0CDE90712B94AB0F83C9143
:104A90001468159400230122C0F82431A0F82831AD
:104AA000FF2105460B938DF828308DF8293002F050
:104AB00097FB024648B1AE4B15991B6899421046C8
:104AC00040F0038217B0BDE8F08F4F21284602F076
:104AD00087FB02460028EED12C224E21284602F008
:104AE0007FFB02460028E6D1FF21284602F078FB32
:104AF00002460028DFD1B422B621284602F070FB1E
:104B000002460028D7D18021284602F069FB0246E0
:104B10000028D0D103460DF129020AA92846FFF743
:104B2000BFFE02460028C6D116AF05F5957347F8BB
:104B30002C0D05F592760320069300921146019004
:104B40001A46029733462846FFF7AAFC0246002879
:104B5000B1D1C022012128460B9C95F8308102F08A
:104B60003FFB02460028A6D10CA92846FFF7A8FB68
:104B7000024600289FD10122FF21284602F030FB87
:104B80000246002897D10DF12A02B621284602F0EC
:104B90009FFB024600288ED1FF21284602F020FB11
:104BA0000246002887D142460121284602F018FB20
:104BB000002872D1BDF82A3085F830814B456ED976
:104BC00004F1B4039B096B49C5F8240151F8233063
:104BD000A5F82801002B40F071812B2C03D96DE141
:104BE0002C2A144607D004F1B5039B09621C51F826
:104BF0002330002BF4D04FF0030BCDE9002B0297AC
:104C0000069A334601212846FFF74AFC024600284F
:104C10007FF451AFC022012128460B9C95F83071DA
:104C200002F0DEFA024600287FF445AF0CA92846C0
:104C3000FFF746FB024600287FF43DAF0122FF212B
:104C4000284602F0CDFA024600287FF434AF0DF179
:104C50002A02B621284602F03BFB024600287FF4D8
:104C60002AAFFF21284602F0BBFA024600287FF453
:104C700022AF3A460121284602F0B2FA0246002845
:104C80007FF419AFBDF82A3085F830714B4540F2FA
:104C9000178101220992904605E002460BE7804603
:104CA0000990024683464B4580F00481A3EB09033B
:104CB0004FEAD40A002BB8BF5B42B2883068ADF827
:104CC0005020BAF1050F0593139004F0070400F289
:104CD000DB800323274F0493069B0AF1FF3C9C448F
:104CE0005046504504F1010B1CF8013F34D013F03D
:104CF000010140F0C7804FEA530E01221EF0010F60
:104D00003BD18A1C082A1FD013F0040F35D1CA1CCE
:104D1000082A19D013F0080F2FD10A1D082A13D022
:104D200013F0100F29D14A1D082A0DD013F0200FBF
:104D300023D18A1D082A07D013F0400F1DD1DB09AB
:104D400011B9002B40F0B880052800F09D8001309B
:104D500050451CF8013FCAD12341DBB2DA070BD41E
:104D6000BBF1080FF0D04FEA530E21465A46C5E773
:104D700000080020200B0020224602EBC00404F1B2
:104D8000B4039B0957F82330003318BF0123434570
:104D900040F08D80E20804F00703B15C012000FAC6
:104DA00003F30B43B354B02106233246284602F0E6
:104DB000D7F9049B013403F1010B00287FF46DAF98
:104DC000C0220121284695F830A102F009FA0028F6
:104DD0007FF463AF0CA92846FFF772FA00287FF42E
:104DE0005CAF0122FF21284602F0FAF900287FF487
:104DF00054AF0DF12A02B621284602F069FA0246A4
:104E000000287FF458AEFF21284602F0E9F9002877
:104E10007FF443AF52460121284602F0E1F9002811
:104E20007FF43BAFBDF82A2085F830A1A2EB09033F
:104E3000002BB8BF5B424A4514D9059A934226D845
:104E4000079A08999DF82440C2F800B001230C701D
:104E500085F81531136885F813310B7885F814310E
:104E6000002228E64FEAD40A3068B2881390BAF1DB
:104E7000060F0593ADF8502004F0070404D0CDF8D8
:104E800010B029E7002278E76FF0310213E606231D
:104E900013AAB021284602F063F9BDF8503002464B
:104EA0001398C5F82401B380002A7FF404AEDDF81E
:104EB00010B0C5E70992C3E707225EE722469AE6EB
:104EC0000121099183468846EDE6FCF709FA00BF07
:104ED0002DE9F041504D84B02B6803930329164609
:104EE00004464BD0042940F0928001A9FEF7B8FE99
:104EF0009DF807700DF10108E7B1424600212046F8
:104F0000FEF796FE38B1039A2B689A4240F08280F1
:104F100004B0BDE8F0810DF102025121204602F0FB
:104F2000D7F9BDF80270FAB23F0ABA40013297B21F
:104F30000028E8D1424601212046FEF779FE0028EC
:104F4000E1D19DF80110354B354A03FB01F303F520
:104F5000FA73A2FB0323D9094FF47A729B0902FB6F
:104F60000612B2FBF3F2D21941D17121204602F0B0
:104F70004FF90028C7D1C4F8DC60C4E70DF1010285
:104F80000021FEF755FE9DF80110244B244A03FB37
:104F900001F303F5FA73A2FB0323D9094FF47A72E4
:104FA0009B0902FB0612B2FBF3F292B272B9ADF8A2
:104FB0000220A4F8D8200028A5D15121204602F0D3
:104FC00027F900289FD1C4F8E4609CE7511E31F016
:104FD000FF0209D000234908013321F0FF029BB2F0
:104FE000002AF8D11B029AB20A4492B2DFE7531E9C
:104FF00033F0FF0208D05B08013023F0FF0280B2DB
:10500000002AF8D1000282B21A4492B2ADE76FF0E2
:10501000030078E7FCF764F900080020002F3A004D
:10502000D34D6210000000000000000000000000EE
:10503000F0B5134F83B002AE00223B6806F8052D91
:10504000054601934FF4FA6408E09DF80330012B04
:105050000AD0013C0ED0284602F06AF931462846B3
:10506000FFF73EF80028F0D0019A3B689A4204D13D
:1050700003B0F0BD6FF00600F6E7FCF731F900BFB2
:1050800000080020000000000000000000000000F8
:105090002DE9F04FDFF86C8A90F8F060D8F8003016
:1050A00095B04FF0000A072E1393CDE90AAA0AD152
:1050B000D146139AD8F800309A42484640F01F85EE
:1050C00015B0BDE8F08F0F4601228021044602F0A2
:1050D00087F801220546FF21204602F081F852465A
:1050E00005435146204602F07BF86DB20622054387
:1050F000FF21204602F074F86DB2054308AA83210F
:10510000204602F0CDF89DF820206DB2054342F014
:1051100004028321204602F063F86DB207220543A2
:10512000FF21204602F05CF86DB201228121054387
:10513000204602F055F86DB20543204602F0F8F81B
:105140006DB2054301228021204602F049F86DB27C
:10515000284317F001034FFA80F9009304D016F0AA
:10516000010500F0D7835346CDE9023317F002035F
:10517000019303D016F0020500F09F8017F0040A97
:1051800007D016F0040500F05682002304931D4654
:1051900002E0CDF810A0554600228121204602F001
:1051A0001FF8062249EA0009FF21204602F018F8FC
:1051B0004FFA89F908AA49EA00098321204602F03A
:1051C0006FF89DF820204FFA89F949EA000902F0AA
:1051D000FB028321204602F003F84FFA89F90122ED
:1051E00049EA0009FF21204601F0FAFF4FFA89F948
:1051F000012249EA00090021204601F0F1FF4FFA9F
:1052000089F9002249EA0009FF21204601F0E8FF60
:105210004FFA89F949EA000900228021204601F06D
:10522000DFFF4FFA89F949EA00094FFA89F9B9F124
:10523000000F7FF43EAF009B83B1F1070ED49DF8C1
:1052400008300C9884F813319DF80C20BDF83430E8
:1052500084F81421C4F82A01A4F82E31019B73B1FB
:10526000B2070CD49DF821209DF8223084F8F1205B
:1052700084F8F2300EA904F1F3000CF079FDBAF1D4
:10528000000F16D0730714D4049B0A9AC4F818218F
:105290005B02C4F820310B9BC4F81C3145B1A5F565
:1052A000C8534FF47A7505FB03F52D096D422DB2F5
:1052B000E5603E4384F8F060FBE60222942120463C
:1052C00001F08EFF2A4649EA00098321204601F0B9
:1052D00087FF4FFA89F9834698B94FF4FA6A0DF1BE
:1052E000230504E060B9BAF1010A00F0F6832A460A
:1052F0008321204601F0D4FF9DF82330002BF1D00C
:10530000834601228321204601F06AFF49EA0B0906
:1053100049EA00090DF121029021204601F0C0FF69
:105320004FFA89F97B2249EA00099421204601F0CD
:1053300057FF4FFA89F949EA0009002283212046E4
:1053400001F04EFF4FFA89F9834698B94FF4FA6A93
:105350000DF1230504E060B9BAF1010A00F0A5835C
:105360002A468321204601F09BFF9DF82330002B25
:10537000F1D0834601228321204601F031FF49EA22
:105380000B0A4AEA000A0DF122029021204601F0A0
:1053900087FF4FFA8AFA77224AEA000A94212046C8
:1053A00001F01EFF4FFA8AFA4AEA000A002283211E
:1053B000204601F015FF4FFA8AFA834698B94FF458
:1053C000FA690DF1230504E060B9B9F1010900F0B3
:1053D00081832A468321204601F062FF9DF8233015
:1053E000002BF1D0834601228321204601F0F8FEF4
:1053F0000DF124094AEA0B0A4AEA000A4A469021BA
:10540000204601F07DFF099B4FFA8AFADA00C3F3C8
:1054100086414AEA000A02F07802C3F3C6205D0E14
:105420008DF82020C3F3061378228DF839108DF8FB
:105430003A00942120468DF83B308DF8385001F029
:10544000CFFE4FFA8AFA4AEA000A00228321204658
:1054500001F0C6FE4FFA8AFA034698B94FF4FA6B88
:105460000DF1230504E060B9BBF1010B00F02983C5
:105470002A468321204601F013FF9DF82320002AAD
:10548000F1D00346012283212046049301F0A8FEB7
:10549000049B4AEA030A4AEA000A4A469021204647
:1054A00001F02EFF099B9DF820209D0102EB537215
:1054B000C3F3865105F040054FFA8AFAC3F3C63CA0
:1054C0004AEA000A8DF820508DF83C20C3F30625E7
:1054D0007922C3F346038DF83D10204694218DF8C0
:1054E00040308DF83EC08DF83F5001F079FE4FFA04
:1054F0008AFA4AEA000A00228321204601F070FE5F
:105500004FFA8AFA034698B94FF4FA6B0DF1230566
:1055100004E060B9BBF1010B00F0E2822A4683216E
:10552000204601F0BDFE9DF82320002AF1D003465D
:10553000012283212046049301F052FE049B4AEA93
:10554000030A4AEA000A4A469021204601F0D8FEA2
:10555000099B9DF820109A0001EB936102F07C02F8
:105560004FFA8AFAC3F3C64C4AEA000AC3F3063577
:105570008DF82020C3F346137A228DF8411020467F
:1055800094218DF844308DF842C08DF8435001F0DD
:1055900027FE4FFA8AFA4AEA000A002283212046AF
:1055A00001F01EFE4FFA8AFA034698B94FF4FA6BDF
:1055B0000DF1230504E060B9BBF1010B00F072822C
:1055C0002A468321204601F06BFE9DF82320002A05
:1055D000F1D00346012283212046049301F000FE0E
:1055E000049B4AEA030A4A464AEA000A90212046F6
:1055F00001F086FE099B9DF820204FFA8AF902EB04
:105600009372C3F3C65EC3F3064CC3F3462549EA5F
:105610000009C3F3860300214FFA89F98DF845206C
:105620008DF846E08DF847C08DF848508DF8493028
:105630008DF84A10A2E57B229421204601F0D0FD8E
:105640002A4649EA00098321204601F0C9FD4FFAA4
:1056500089F9034698B94FF4FA6B0DF1230504E07C
:1056600060B9BBF1010B00F044822A468321204639
:1056700001F016FE9DF82320002AF1D003460122F6
:1056800083212046049301F0ABFD049B49EA030902
:1056900049EA00090AAA9021204601F031FE4FFA9A
:1056A00089F97C2249EA00099421204601F098FDFD
:1056B0004FFA89F949EA000900228321204601F0C6
:1056C0008FFD4FFA89F9034698B94FF4FA6B0DF143
:1056D000230504E060B9BBF1010B00F004822A4607
:1056E0008321204601F0DCFD9DF82320002AF1D023
:1056F0000346012283212046049301F071FD049B9F
:1057000049EA030B4BEA000B0BAA9021204601F05B
:10571000F7FD4FFA8BFB73224BEA000B94212046D6
:1057200001F05EFD4FFA8BFB4BEA000B0022832158
:10573000204601F055FD4FFA8BFB034698B94FF414
:10574000FA690DF1230504E060B9B9F1010900F02F
:10575000AF812A468321204601F0A2FD9DF8232037
:10576000002AF1D00346012283212046049301F050
:1057700037FD049B0DF124094BEA030B4BEA000BA8
:105780004A469021204601F0BBFD099A4FFA8BFB57
:105790001502ABB24BEA000B74229421204604930D
:1057A00001F01EFD4FFA8BFB4BEA000B4FFA8BF317
:1057B000002283212046059301F012FD034698B98B
:1057C0004FF4FA6B0DF1230504E060B9BBF1010B56
:1057D00000F07D812A468321204601F061FD9DF87D
:1057E0002320002AF1D0034601228321204606937C
:1057F00001F0F6FCDDE905531D4305434A469021BF
:10580000204601F07DFD6DB205439DF827304FFA2B
:1058100085FB049D75221D4394212046049501F0CB
:10582000DFFC4BEA00056BB2002283212046059382
:1058300001F0D6FC034698B94FF4FA6B0DF123053D
:1058400004E060B9BBF1010B00F038812A468321E6
:10585000204601F025FD9DF82320002AF1D00346C3
:10586000012283212046069301F0BAFCDDE90523DD
:105870001A43134603434A46902120464FFA83FBBE
:1058800001F03EFD099D2D02ABB24BEA000B7622E2
:1058900094212046059301F0A3FC4FFA8BFB4BEAC1
:1058A000000B4FFA8BF3002283212046069301F070
:1058B00097FC034698B94FF4FA6B0DF1230504E009
:1058C00060B9BBF1010B00F0FF802A46832120461E
:1058D00001F0E6FC9DF82320002AF1D003460122C6
:1058E00083212046079301F07BFCDDE906231A4360
:1058F000134603434A46902120464FFA83F901F0AC
:10590000FFFC9DF82750059B49EA00094FFA89F9E9
:105910001D4341E46B229421204601F061FC2A469C
:1059200049EA00098321204601F05AFC4FFA89F523
:105930008346A0B94FF4FA6A0DF1240904E060B976
:10594000BAF1010A00F0B7804A468321204601F0EF
:10595000A7FC9DF82430002BF1D0834601E00DF127
:10596000240901228321204601F03AFC45EA0B0577
:1059700005434A469021204601F0C2FCDDF824C0D0
:105980006DB2CCF3062305432422942102932046D2
:10599000CCF3C033039301F023FC6DB20543002226
:1059A0008321204601F01CFC4FFA85FA034698B982
:1059B0004FF4FA6B0DF1230504E060B9BBF1010B64
:1059C00000F09A802A468321204601F069FC9DF868
:1059D0002320002AF1D0034601228321204601938F
:1059E00001F0FEFB019B4AEA030A4AEA000A4A4622
:1059F0009021204601F084FC099A0025130E63F3E0
:105A00000705130C63F30F25130A63F317454FFAC9
:105A10008AFA4AEA000A62F31F6594212522204689
:105A20000C9501F0DDFB4FFA8AFA4AEA000A0022DF
:105A30008321204601F0D4FB4FFA8AFA034690B93D
:105A40004FF4FA6B0DF1230503E058B9BBF1010BDC
:105A50004CD02A468321204601F022FC9DF82320C9
:105A6000002AF2D00346012283212046019301F04F
:105A7000B7FB019B4AEA030A4A464AEA000A902118
:105A8000204601F03DFC099B4FFA8AF91A0E49EABB
:105A900000091B0C4FFA89F98DF834208DF8353048
:105AA000FFF764BB6FF0060394E56FF0060B61E44B
:105AB0006FF0060357E66FF0060B52E76FF0060330
:105AC000CEE66FF00603DDE46FF0060307E76FF044
:105AD000060389E66FF0060B85E46FF0060B10E411
